{
  "contractName": "Balances",
  "abi": [
    {
      "inputs": [
        {
          "internalType": "address",
          "name": "_user",
          "type": "address"
        },
        {
          "internalType": "address[]",
          "name": "_tokens",
          "type": "address[]"
        }
      ],
      "name": "getBalances",
      "outputs": [
        {
          "components": [
            {
              "internalType": "address",
              "name": "token",
              "type": "address"
            },
            {
              "internalType": "uint256",
              "name": "balance",
              "type": "uint256"
            }
          ],
          "internalType": "struct Balances.TokenBalance[]",
          "name": "",
          "type": "tuple[]"
        }
      ],
      "stateMutability": "view",
      "type": "function",
      "constant": true
    }
  ],
  "bytecode": "0x608060405234801561001057600080fd5b506106c6806100206000396000f3fe608060405234801561001057600080fd5b506004361061002b5760003560e01c80636a385ae914610030575b600080fd5b61004a600480360381019061004591906103e2565b610060565b6040516100579190610544565b60405180910390f35b60606000825167ffffffffffffffff81111561007f5761007e61029f565b5b6040519080825280602002602001820160405280156100b857816020015b6100a56101e7565b81526020019060019003908161009d5790505b50905060005b83518110156101dc5760008482815181106100dc576100db610566565b5b6020026020010151905060008173ffffffffffffffffffffffffffffffffffffffff166370a08231886040518263ffffffff1660e01b815260040161012191906105a4565b602060405180830381865afa15801561013e573d6000803e3d6000fd5b505050506040513d601f19601f8201168201806040525081019061016291906105eb565b9050604051806040016040528087858151811061018257610181610566565b5b602002602001015173ffffffffffffffffffffffffffffffffffffffff168152602001828152508484815181106101bc576101bb610566565b5b6020026020010181905250505080806101d490610647565b9150506100be565b508091505092915050565b6040518060400160405280600073ffffffffffffffffffffffffffffffffffffffff168152602001600081525090565b6000604051905090565b600080fd5b600080fd5b600073ffffffffffffffffffffffffffffffffffffffff82169050919050565b60006102568261022b565b9050919050565b6102668161024b565b811461027157600080fd5b50565b6000813590506102838161025d565b92915050565b600080fd5b6000601f19601f8301169050919050565b7f4e487b7100000000000000000000000000000000000000000000000000000000600052604160045260246000fd5b6102d78261028e565b810181811067ffffffffffffffff821117156102f6576102f561029f565b5b80604052505050565b6000610309610217565b905061031582826102ce565b919050565b600067ffffffffffffffff8211156103355761033461029f565b5b602082029050602081019050919050565b600080fd5b600061035e6103598461031a565b6102ff565b9050808382526020820190506020840283018581111561038157610380610346565b5b835b818110156103aa57806103968882610274565b845260208401935050602081019050610383565b5050509392505050565b600082601f8301126103c9576103c8610289565b5b81356103d984826020860161034b565b91505092915050565b600080604083850312156103f9576103f8610221565b5b600061040785828601610274565b925050602083013567ffffffffffffffff81111561042857610427610226565b5b610434858286016103b4565b9150509250929050565b600081519050919050565b600082825260208201905092915050565b6000819050602082019050919050565b6104738161024b565b82525050565b6000819050919050565b61048c81610479565b82525050565b6040820160008201516104a8600085018261046a565b5060208201516104bb6020850182610483565b50505050565b60006104cd8383610492565b60408301905092915050565b6000602082019050919050565b60006104f18261043e565b6104fb8185610449565b93506105068361045a565b8060005b8381101561053757815161051e88826104c1565b9750610529836104d9565b92505060018101905061050a565b5085935050505092915050565b6000602082019050818103600083015261055e81846104e6565b905092915050565b7f4e487b7100000000000000000000000000000000000000000000000000000000600052603260045260246000fd5b61059e8161024b565b82525050565b60006020820190506105b96000830184610595565b92915050565b6105c881610479565b81146105d357600080fd5b50565b6000815190506105e5816105bf565b92915050565b60006020828403121561060157610600610221565b5b600061060f848285016105d6565b91505092915050565b7f4e487b7100000000000000000000000000000000000000000000000000000000600052601160045260246000fd5b600061065282610479565b91507fffffffffffffffffffffffffffffffffffffffffffffffffffffffffffffffff82141561068557610684610618565b5b60018201905091905056fea2646970667358221220896a537887200db4272600e23a06c514e1f43402c2a962b3f071d0f2123da31f64736f6c634300080c0033",
  "immutableReferences": {},
  "source": "// SPDX-License-Identifier: MIT\npragma solidity >=0.8.0;\n\nimport \"./IERC20.sol\";\n\ncontract Balances {\n    struct TokenBalance {\n        address token;\n        uint balance;\n    }\n\n    function getBalances(address _user, address[] memory _tokens) public view returns (TokenBalance[] memory){\n        TokenBalance[] memory tokenBalances = new TokenBalance[](_tokens.length);\n        for (uint ctr=0; ctr<_tokens.length; ctr++) {\n            IERC20 tokenInstance = IERC20(_tokens[ctr]);\n            uint balance = tokenInstance.balanceOf(_user);\n            tokenBalances[ctr] = TokenBalance(_tokens[ctr],balance);\n        }\n        return tokenBalances;\n    }\n\n}",
  "sourcePath": "/home/akshit/Documents/Codezz/Internships/Code-Challenge/src/problem5/contracts/Balances.sol",
  "compiler": {
    "name": "solc",
    "version": "0.8.12+commit.f00d7308.Emscripten.clang"
  },
  "schemaVersion": "3.4.4",
  "updatedAt": "2022-02-17T13:16:50.848Z",
  "networkType": "ethereum",
  "devdoc": {
    "kind": "dev",
    "methods": {},
    "version": 1
  },
  "userdoc": {
    "kind": "user",
    "methods": {},
    "version": 1
  }
}